{
  "_format": "hh-sol-artifact-1",
  "contractName": "Ration",
  "sourceName": "contracts/Ration.sol",
  "abi": [
    {
      "inputs": [],
      "stateMutability": "nonpayable",
      "type": "constructor"
    },
    {
      "anonymous": false,
      "inputs": [
        {
          "indexed": false,
          "internalType": "address",
          "name": "_user",
          "type": "address"
        },
        {
          "indexed": false,
          "internalType": "uint256",
          "name": "_value",
          "type": "uint256"
        },
        {
          "indexed": false,
          "internalType": "uint256",
          "name": "_updated_at",
          "type": "uint256"
        }
      ],
      "name": "TransactionCompleted",
      "type": "event"
    },
    {
      "inputs": [
        {
          "internalType": "uint256",
          "name": "",
          "type": "uint256"
        }
      ],
      "name": "all_users",
      "outputs": [
        {
          "internalType": "address",
          "name": "address_user",
          "type": "address"
        },
        {
          "internalType": "bool",
          "name": "isFuelBought",
          "type": "bool"
        },
        {
          "internalType": "bool",
          "name": "isFoodBought",
          "type": "bool"
        },
        {
          "internalType": "bool",
          "name": "isMedicineBought",
          "type": "bool"
        },
        {
          "internalType": "uint256",
          "name": "created_at",
          "type": "uint256"
        },
        {
          "internalType": "uint256",
          "name": "last_update",
          "type": "uint256"
        }
      ],
      "stateMutability": "view",
      "type": "function"
    },
    {
      "inputs": [],
      "name": "buyFood",
      "outputs": [],
      "stateMutability": "payable",
      "type": "function"
    },
    {
      "inputs": [],
      "name": "buyFuel",
      "outputs": [],
      "stateMutability": "payable",
      "type": "function"
    },
    {
      "inputs": [],
      "name": "buyMedicine",
      "outputs": [],
      "stateMutability": "payable",
      "type": "function"
    },
    {
      "inputs": [],
      "name": "currentUserData",
      "outputs": [
        {
          "components": [
            {
              "internalType": "address",
              "name": "address_user",
              "type": "address"
            },
            {
              "internalType": "bool",
              "name": "isFuelBought",
              "type": "bool"
            },
            {
              "internalType": "bool",
              "name": "isFoodBought",
              "type": "bool"
            },
            {
              "internalType": "bool",
              "name": "isMedicineBought",
              "type": "bool"
            },
            {
              "internalType": "uint256",
              "name": "created_at",
              "type": "uint256"
            },
            {
              "internalType": "uint256",
              "name": "last_update",
              "type": "uint256"
            }
          ],
          "internalType": "struct Ration.User",
          "name": "",
          "type": "tuple"
        }
      ],
      "stateMutability": "view",
      "type": "function"
    },
    {
      "inputs": [],
      "name": "getBalance",
      "outputs": [
        {
          "internalType": "uint256",
          "name": "",
          "type": "uint256"
        }
      ],
      "stateMutability": "view",
      "type": "function"
    },
    {
      "inputs": [],
      "name": "getBalanceOwner",
      "outputs": [
        {
          "internalType": "uint256",
          "name": "",
          "type": "uint256"
        }
      ],
      "stateMutability": "view",
      "type": "function"
    },
    {
      "inputs": [],
      "name": "getUsers",
      "outputs": [
        {
          "components": [
            {
              "internalType": "address",
              "name": "address_user",
              "type": "address"
            },
            {
              "internalType": "bool",
              "name": "isFuelBought",
              "type": "bool"
            },
            {
              "internalType": "bool",
              "name": "isFoodBought",
              "type": "bool"
            },
            {
              "internalType": "bool",
              "name": "isMedicineBought",
              "type": "bool"
            },
            {
              "internalType": "uint256",
              "name": "created_at",
              "type": "uint256"
            },
            {
              "internalType": "uint256",
              "name": "last_update",
              "type": "uint256"
            }
          ],
          "internalType": "struct Ration.User[]",
          "name": "",
          "type": "tuple[]"
        }
      ],
      "stateMutability": "view",
      "type": "function"
    },
    {
      "inputs": [],
      "name": "owner",
      "outputs": [
        {
          "internalType": "address payable",
          "name": "",
          "type": "address"
        }
      ],
      "stateMutability": "view",
      "type": "function"
    }
  ],
  "bytecode": "0x608060405234801561001057600080fd5b50336000806101000a81548173ffffffffffffffffffffffffffffffffffffffff021916908373ffffffffffffffffffffffffffffffffffffffff16021790555061227f806100606000396000f3fe6080604052600436106100855760003560e01c806354cd0d5b1161005957806354cd0d5b1461011557806367dac2a01461011f5780638da5cb5b14610161578063c9bac8671461018c578063f3fd47a0146101b757610085565b8062ce8e3e1461008a57806308b6ff56146100b5578063094ebde6146100e057806312065fe0146100ea575b600080fd5b34801561009657600080fd5b5061009f6101c1565b6040516100ac9190611bb4565b60405180910390f35b3480156100c157600080fd5b506100ca6102db565b6040516100d79190611be5565b60405180910390f35b6100e861031b565b005b3480156100f657600080fd5b506100ff6109d7565b60405161010c9190611be5565b60405180910390f35b61011d6109f6565b005b34801561012b57600080fd5b5061014660048036038101906101419190611c31565b6110b2565b60405161015896959493929190611c7c565b60405180910390f35b34801561016d57600080fd5b50610176611145565b6040516101839190611cfe565b60405180910390f35b34801561019857600080fd5b506101a1611169565b6040516101ae9190611d94565b60405180910390f35b6101bf611307565b005b60606001805480602002602001604051908101604052809291908181526020016000905b828210156102d257838290600052602060002090600302016040518060c00160405290816000820160009054906101000a900473ffffffffffffffffffffffffffffffffffffffff1673ffffffffffffffffffffffffffffffffffffffff1673ffffffffffffffffffffffffffffffffffffffff1681526020016000820160149054906101000a900460ff161515151581526020016000820160159054906101000a900460ff161515151581526020016000820160169054906101000a900460ff1615151515815260200160018201548152602001600282015481525050815260200190600101906101e5565b50505050905090565b60008060009054906101000a900473ffffffffffffffffffffffffffffffffffffffff1673ffffffffffffffffffffffffffffffffffffffff1631905090565b671bc16d674ec800003414610365576040517f08c379a000000000000000000000000000000000000000000000000000000000815260040161035c90611e0c565b60405180910390fd5b6000806000805b600180549050811015610688573373ffffffffffffffffffffffffffffffffffffffff16600182815481106103a4576103a3611e2c565b5b906000526020600020906003020160000160009054906101000a900473ffffffffffffffffffffffffffffffffffffffff1673ffffffffffffffffffffffffffffffffffffffff1603610675576001818154811061040557610404611e2c565b5b906000526020600020906003020160000160159054906101000a900460ff1692506001818154811061043a57610439611e2c565b5b906000526020600020906003020160000160149054906101000a900460ff1693506001818154811061046f5761046e611e2c565b5b906000526020600020906003020160000160169054906101000a900460ff16915081156104d1576040517f08c379a00000000000000000000000000000000000000000000000000000000081526004016104c890611ecd565b60405180910390fd5b60008060008054906101000a900473ffffffffffffffffffffffffffffffffffffffff1673ffffffffffffffffffffffffffffffffffffffff163460405161051890611f1e565b60006040518083038185875af1925050503d8060008114610555576040519150601f19603f3d011682016040523d82523d6000602084013e61055a565b606091505b50915091508161059f576040517f08c379a000000000000000000000000000000000000000000000000000000000815260040161059690611f7f565b60405180910390fd5b6001935083600184815481106105b8576105b7611e2c565b5b906000526020600020906003020160000160166101000a81548160ff02191690831515021790555042600184815481106105f5576105f4611e2c565b5b9060005260206000209060030201600201819055507f80913d60a2fe5164e9e438280e3fa540cc312ef748eea90649364713999d5af433346001868154811061064157610640611e2c565b5b90600052602060002090600302016002015460405161066293929190611f9f565b60405180910390a15050505050506109d5565b808061068090612005565b91505061036c565b5060008060008054906101000a900473ffffffffffffffffffffffffffffffffffffffff1673ffffffffffffffffffffffffffffffffffffffff16346040516106d090611f1e565b60006040518083038185875af1925050503d806000811461070d576040519150601f19603f3d011682016040523d82523d6000602084013e610712565b606091505b509150915081610757576040517f08c379a000000000000000000000000000000000000000000000000000000000815260040161074e90611f7f565b60405180910390fd5b6001925060016040518060c001604052803373ffffffffffffffffffffffffffffffffffffffff16815260200187151581526020018615158152602001851515815260200142815260200142815250600260003373ffffffffffffffffffffffffffffffffffffffff1673ffffffffffffffffffffffffffffffffffffffff16815260200190815260200160002060008201518160000160006101000a81548173ffffffffffffffffffffffffffffffffffffffff021916908373ffffffffffffffffffffffffffffffffffffffff16021790555060208201518160000160146101000a81548160ff02191690831515021790555060408201518160000160156101000a81548160ff02191690831515021790555060608201518160000160166101000a81548160ff0219169083151502179055506080820151816001015560a08201518160020155905090806001815401808255809150506001900390600052602060002090600302016000909190919091506000820160009054906101000a900473ffffffffffffffffffffffffffffffffffffffff168160000160006101000a81548173ffffffffffffffffffffffffffffffffffffffff021916908373ffffffffffffffffffffffffffffffffffffffff1602179055506000820160149054906101000a900460ff168160000160146101000a81548160ff0219169083151502179055506000820160159054906101000a900460ff168160000160156101000a81548160ff0219169083151502179055506000820160169054906101000a900460ff168160000160166101000a81548160ff0219169083151502179055506001820154816001015560028201548160020155505050505050505b565b60003373ffffffffffffffffffffffffffffffffffffffff1631905090565b670de0b6b3a76400003414610a40576040517f08c379a0000000000000000000000000000000000000000000000000000000008152600401610a3790612099565b60405180910390fd5b6000806000805b600180549050811015610d63573373ffffffffffffffffffffffffffffffffffffffff1660018281548110610a7f57610a7e611e2c565b5b906000526020600020906003020160000160009054906101000a900473ffffffffffffffffffffffffffffffffffffffff1673ffffffffffffffffffffffffffffffffffffffff1603610d505760018181548110610ae057610adf611e2c565b5b906000526020600020906003020160000160159054906101000a900460ff16925060018181548110610b1557610b14611e2c565b5b906000526020600020906003020160000160149054906101000a900460ff16935060018181548110610b4a57610b49611e2c565b5b906000526020600020906003020160000160169054906101000a900460ff1691508315610bac576040517f08c379a0000000000000000000000000000000000000000000000000000000008152600401610ba39061212b565b60405180910390fd5b60008060008054906101000a900473ffffffffffffffffffffffffffffffffffffffff1673ffffffffffffffffffffffffffffffffffffffff1634604051610bf390611f1e565b60006040518083038185875af1925050503d8060008114610c30576040519150601f19603f3d011682016040523d82523d6000602084013e610c35565b606091505b509150915081610c7a576040517f08c379a0000000000000000000000000000000000000000000000000000000008152600401610c7190611f7f565b60405180910390fd5b600195508560018481548110610c9357610c92611e2c565b5b906000526020600020906003020160000160146101000a81548160ff0219169083151502179055504260018481548110610cd057610ccf611e2c565b5b9060005260206000209060030201600201819055507f80913d60a2fe5164e9e438280e3fa540cc312ef748eea90649364713999d5af4333460018681548110610d1c57610d1b611e2c565b5b906000526020600020906003020160020154604051610d3d93929190611f9f565b60405180910390a15050505050506110b0565b8080610d5b90612005565b915050610a47565b5060008060008054906101000a900473ffffffffffffffffffffffffffffffffffffffff1673ffffffffffffffffffffffffffffffffffffffff1634604051610dab90611f1e565b60006040518083038185875af1925050503d8060008114610de8576040519150601f19603f3d011682016040523d82523d6000602084013e610ded565b606091505b509150915081610e32576040517f08c379a0000000000000000000000000000000000000000000000000000000008152600401610e2990611f7f565b60405180910390fd5b6001945060016040518060c001604052803373ffffffffffffffffffffffffffffffffffffffff16815260200187151581526020018615158152602001851515815260200142815260200142815250600260003373ffffffffffffffffffffffffffffffffffffffff1673ffffffffffffffffffffffffffffffffffffffff16815260200190815260200160002060008201518160000160006101000a81548173ffffffffffffffffffffffffffffffffffffffff021916908373ffffffffffffffffffffffffffffffffffffffff16021790555060208201518160000160146101000a81548160ff02191690831515021790555060408201518160000160156101000a81548160ff02191690831515021790555060608201518160000160166101000a81548160ff0219169083151502179055506080820151816001015560a08201518160020155905090806001815401808255809150506001900390600052602060002090600302016000909190919091506000820160009054906101000a900473ffffffffffffffffffffffffffffffffffffffff168160000160006101000a81548173ffffffffffffffffffffffffffffffffffffffff021916908373ffffffffffffffffffffffffffffffffffffffff1602179055506000820160149054906101000a900460ff168160000160146101000a81548160ff0219169083151502179055506000820160159054906101000a900460ff168160000160156101000a81548160ff0219169083151502179055506000820160169054906101000a900460ff168160000160166101000a81548160ff0219169083151502179055506001820154816001015560028201548160020155505050505050505b565b600181815481106110c257600080fd5b90600052602060002090600302016000915090508060000160009054906101000a900473ffffffffffffffffffffffffffffffffffffffff16908060000160149054906101000a900460ff16908060000160159054906101000a900460ff16908060000160169054906101000a900460ff16908060010154908060020154905086565b60008054906101000a900473ffffffffffffffffffffffffffffffffffffffff1681565b6111716119c3565b60005b600180549050811015611302573373ffffffffffffffffffffffffffffffffffffffff16600182815481106111ac576111ab611e2c565b5b906000526020600020906003020160000160009054906101000a900473ffffffffffffffffffffffffffffffffffffffff1673ffffffffffffffffffffffffffffffffffffffff16036112ef5760006001828154811061120f5761120e611e2c565b5b90600052602060002090600302016040518060c00160405290816000820160009054906101000a900473ffffffffffffffffffffffffffffffffffffffff1673ffffffffffffffffffffffffffffffffffffffff1673ffffffffffffffffffffffffffffffffffffffff1681526020016000820160149054906101000a900460ff161515151581526020016000820160159054906101000a900460ff161515151581526020016000820160169054906101000a900460ff161515151581526020016001820154815260200160028201548152505090508092505050611304565b80806112fa90612005565b915050611174565b505b90565b671bc16d674ec800003414611351576040517f08c379a000000000000000000000000000000000000000000000000000000000815260040161134890612197565b60405180910390fd5b6000806000805b600180549050811015611674573373ffffffffffffffffffffffffffffffffffffffff16600182815481106113905761138f611e2c565b5b906000526020600020906003020160000160009054906101000a900473ffffffffffffffffffffffffffffffffffffffff1673ffffffffffffffffffffffffffffffffffffffff160361166157600181815481106113f1576113f0611e2c565b5b906000526020600020906003020160000160159054906101000a900460ff1692506001818154811061142657611425611e2c565b5b906000526020600020906003020160000160149054906101000a900460ff1693506001818154811061145b5761145a611e2c565b5b906000526020600020906003020160000160169054906101000a900460ff16915082156114bd576040517f08c379a00000000000000000000000000000000000000000000000000000000081526004016114b490612229565b60405180910390fd5b60008060008054906101000a900473ffffffffffffffffffffffffffffffffffffffff1673ffffffffffffffffffffffffffffffffffffffff163460405161150490611f1e565b60006040518083038185875af1925050503d8060008114611541576040519150601f19603f3d011682016040523d82523d6000602084013e611546565b606091505b50915091508161158b576040517f08c379a000000000000000000000000000000000000000000000000000000000815260040161158290611f7f565b60405180910390fd5b6001945084600184815481106115a4576115a3611e2c565b5b906000526020600020906003020160000160156101000a81548160ff02191690831515021790555042600184815481106115e1576115e0611e2c565b5b9060005260206000209060030201600201819055507f80913d60a2fe5164e9e438280e3fa540cc312ef748eea90649364713999d5af433346001868154811061162d5761162c611e2c565b5b90600052602060002090600302016002015460405161164e93929190611f9f565b60405180910390a15050505050506119c1565b808061166c90612005565b915050611358565b5060008060008054906101000a900473ffffffffffffffffffffffffffffffffffffffff1673ffffffffffffffffffffffffffffffffffffffff16346040516116bc90611f1e565b60006040518083038185875af1925050503d80600081146116f9576040519150601f19603f3d011682016040523d82523d6000602084013e6116fe565b606091505b509150915081611743576040517f08c379a000000000000000000000000000000000000000000000000000000000815260040161173a90611f7f565b60405180910390fd5b6001935060016040518060c001604052803373ffffffffffffffffffffffffffffffffffffffff16815260200187151581526020018615158152602001851515815260200142815260200142815250600260003373ffffffffffffffffffffffffffffffffffffffff1673ffffffffffffffffffffffffffffffffffffffff16815260200190815260200160002060008201518160000160006101000a81548173ffffffffffffffffffffffffffffffffffffffff021916908373ffffffffffffffffffffffffffffffffffffffff16021790555060208201518160000160146101000a81548160ff02191690831515021790555060408201518160000160156101000a81548160ff02191690831515021790555060608201518160000160166101000a81548160ff0219169083151502179055506080820151816001015560a08201518160020155905090806001815401808255809150506001900390600052602060002090600302016000909190919091506000820160009054906101000a900473ffffffffffffffffffffffffffffffffffffffff168160000160006101000a81548173ffffffffffffffffffffffffffffffffffffffff021916908373ffffffffffffffffffffffffffffffffffffffff1602179055506000820160149054906101000a900460ff168160000160146101000a81548160ff0219169083151502179055506000820160159054906101000a900460ff168160000160156101000a81548160ff0219169083151502179055506000820160169054906101000a900460ff168160000160166101000a81548160ff0219169083151502179055506001820154816001015560028201548160020155505050505050505b565b6040518060c00160405280600073ffffffffffffffffffffffffffffffffffffffff16815260200160001515815260200160001515815260200160001515815260200160008152602001600081525090565b600081519050919050565b600082825260208201905092915050565b6000819050602082019050919050565b600073ffffffffffffffffffffffffffffffffffffffff82169050919050565b6000611a6c82611a41565b9050919050565b611a7c81611a61565b82525050565b60008115159050919050565b611a9781611a82565b82525050565b6000819050919050565b611ab081611a9d565b82525050565b60c082016000820151611acc6000850182611a73565b506020820151611adf6020850182611a8e565b506040820151611af26040850182611a8e565b506060820151611b056060850182611a8e565b506080820151611b186080850182611aa7565b5060a0820151611b2b60a0850182611aa7565b50505050565b6000611b3d8383611ab6565b60c08301905092915050565b6000602082019050919050565b6000611b6182611a15565b611b6b8185611a20565b9350611b7683611a31565b8060005b83811015611ba7578151611b8e8882611b31565b9750611b9983611b49565b925050600181019050611b7a565b5085935050505092915050565b60006020820190508181036000830152611bce8184611b56565b905092915050565b611bdf81611a9d565b82525050565b6000602082019050611bfa6000830184611bd6565b92915050565b600080fd5b611c0e81611a9d565b8114611c1957600080fd5b50565b600081359050611c2b81611c05565b92915050565b600060208284031215611c4757611c46611c00565b5b6000611c5584828501611c1c565b91505092915050565b611c6781611a61565b82525050565b611c7681611a82565b82525050565b600060c082019050611c916000830189611c5e565b611c9e6020830188611c6d565b611cab6040830187611c6d565b611cb86060830186611c6d565b611cc56080830185611bd6565b611cd260a0830184611bd6565b979650505050505050565b6000611ce882611a41565b9050919050565b611cf881611cdd565b82525050565b6000602082019050611d136000830184611cef565b92915050565b60c082016000820151611d2f6000850182611a73565b506020820151611d426020850182611a8e565b506040820151611d556040850182611a8e565b506060820151611d686060850182611a8e565b506080820151611d7b6080850182611aa7565b5060a0820151611d8e60a0850182611aa7565b50505050565b600060c082019050611da96000830184611d19565b92915050565b600082825260208201905092915050565b7f496e76616c6964205472616e73616374696f6e20286d65646963696e65290000600082015250565b6000611df6601e83611daf565b9150611e0182611dc0565b602082019050919050565b60006020820190508181036000830152611e2581611de9565b9050919050565b7f4e487b7100000000000000000000000000000000000000000000000000000000600052603260045260246000fd5b7f596f75206861766520616c726561647920617661696c6564206d65646963696e60008201527f6520726174696f6e000000000000000000000000000000000000000000000000602082015250565b6000611eb7602883611daf565b9150611ec282611e5b565b604082019050919050565b60006020820190508181036000830152611ee681611eaa565b9050919050565b600081905092915050565b50565b6000611f08600083611eed565b9150611f1382611ef8565b600082019050919050565b6000611f2982611efb565b9150819050919050565b7f4661696c656420746f2073656e64204574686572000000000000000000000000600082015250565b6000611f69601483611daf565b9150611f7482611f33565b602082019050919050565b60006020820190508181036000830152611f9881611f5c565b9050919050565b6000606082019050611fb46000830186611c5e565b611fc16020830185611bd6565b611fce6040830184611bd6565b949350505050565b7f4e487b7100000000000000000000000000000000000000000000000000000000600052601160045260246000fd5b600061201082611a9d565b91507fffffffffffffffffffffffffffffffffffffffffffffffffffffffffffffffff820361204257612041611fd6565b5b600182019050919050565b7f496e76616c6964205472616e73616374696f6e20286675656c29000000000000600082015250565b6000612083601a83611daf565b915061208e8261204d565b602082019050919050565b600060208201905081810360008301526120b281612076565b9050919050565b7f596f75206861766520616c726561647920617661696c6564206675656c20726160008201527f74696f6e00000000000000000000000000000000000000000000000000000000602082015250565b6000612115602483611daf565b9150612120826120b9565b604082019050919050565b6000602082019050818103600083015261214481612108565b9050919050565b7f496e76616c6964205472616e73616374696f6e2028666f6f6429000000000000600082015250565b6000612181601a83611daf565b915061218c8261214b565b602082019050919050565b600060208201905081810360008301526121b081612174565b9050919050565b7f596f75206861766520616c726561647920617661696c656420666f6f6420726160008201527f74696f6e00000000000000000000000000000000000000000000000000000000602082015250565b6000612213602483611daf565b915061221e826121b7565b604082019050919050565b6000602082019050818103600083015261224281612206565b905091905056fea2646970667358221220d517a16071482474964154f9cb8f156e0e88d6e3848a10e97a90dc2caed3521664736f6c63430008110033",
  "linkReferences": {},
  "deployedLinkReferences": {}
}